:100000000C94C6070C94EE070C94EE070C94EE07C4
:100010000C94EE070C94EE070C94EE070C94EE078C
:100020000C94EE070C94EE070C94EE070C94EE077C
:100030000C94EE070C94EE070C94EE070C94EE076C
:100040000C94681F0C94EE070C94251E0C94571EFC
:100050000C94EE070C94EE070C94EE070C94EE074C
:100060000C94EE070C94EE0709296F292729212902
:1000700039293E296329000000000000000000002B
:10008000000007F800000000000000000000000071
:1000900000001FFE00000000000000000000000043
:1000A00000007FFF80000000000000000000000052
:1000B0000000FFFFC0000000000000000000000082
:1000C0000001FE1FE0000000000000000000000032
:1000D0000003F807F000000000000000000000002E
:1000E0000003E001F000000000000000000000003C
:1000F0000007C000F8000000000000000000000041
:1001000000078000780000000000000000000000F0
:10011000000F80007C0000000000000000000000D4
:10012000000F80007C0000000000000000000000C4
:10013000000F00003C000000000000000000000074
:10014000000F00003C000000000000000000000064
:10015000000F00003C000000000000000000000054
:10016000000F00003C000000000000000000000044
:10017000000F00003C000000000000000000000034
:10018000000F00003C000000000000000000000024
:10019000000F00003C000000000000000000000014
:1001A000000F00003C000000000000000000000004
:1001B000000000003C000000000000000000000003
:1001C000000000003C0000000000000000000000F3
:1001D000000000003C0000000000000000000000E3
:1001E000000000003C0000000000000000000000D3
:1001F000000000003C0000000000000000000000C3
:10020000000000003C0000000000000000000000B2
:10021000000000003C0000000000000000000000A2
:10022000000000003C000000000000000000000092
:10023000007FFFFFFF8000000000000000000000C2
:1002400001FFFFFFFFE000000000000000000000D1
:1002500003FFFFFFFFF000000000000000000000AF
:1002600007FFFFFFFFF80000000000000000000093
:100270000FFFFFFFFFFC0000000000000000000077
:100280000FFFFFFFFFFC0000000000000000000067
:100290000FFFFFFFFFFC0000000000000000000057
:1002A0001FFFFFFFFFFE0000000000000000000035
:1002B0001FFFFFFFFFFE0000000000000000000025
:1002C0001FFFFFFFFFFE0000000000000000000015
:1002D0001FFFFFFFFFFE0000000000000000000005
:1002E0001FFFFE1FFFFE00000000000000000000D6
:1002F0001FFFFC0FFFFE00000000000000000000D8
:100300001FFFF807FFFE00000000000000000000D3
:100310001FFFF003FFFE00000000000000000000CF
:100320001FFFF003FFFE00000000000000000000BF
:100330001FFFF003FFFE00000000000000000000AF
:100340001FFFF807FFFE0000000000000000000093
:100350001FFFFC0FFFFE0000000000000000000077
:100360001FFFFE1FFFFE0000000000000000000055
:100370001FFFFE1FFFFE0000000000000000000045
:100380001FFFFE1FFFFE0000000000000000000035
:100390001FFFFE1FFFFE0000000000000000000025
:1003A0001FFFFE1FFFFE0000000000000000000015
:1003B0001FFFFE1FFFFE0000000000000000000005
:1003C0001FFFFE1FFFFE00000000000000000000F5
:1003D0001FFFFF3FFFFE00000000000000000000C4
:1003E0001FFFFFFFFFFE00000000000000000000F4
:1003F0001FFFFFFFFFFE00000000000000000000E4
:100400000FFFFFFFFFFC00000000000000000000E5
:100410000FFFFFFFFFFC00000000000000000000D5
:100420000FFFFFFFFFFC00000000000000000000C5
:1004300007FFFFFFFFF800000000000000000000C1
:1004400003FFFFFFFFF000000000000000000000BD
:1004500000FFFFFFFFC000000000000000000000E0
:10046000001FFFFFFE000000000000000000000071
:10047000000000000000000000000000000000007C
:10048000000000000000000000000000000000006C
:10049000000000000000000000000000000000005C
:1004A000000000000000000000000000000000004C
:1004B000000000000000000000000000000000003C
:1004C000000000000000000000000000000000002C
:1004D000000007F80000000000000000000000001D
:1004E00000001FFE000000000000000000000000EF
:1004F00000007FFF800000000000000000000000FE
:100500000000FFFFC000000000000000000000002D
:100510000001FE1FE00000000000000000000000DD
:100520000003F807F00000000000000000000000D9
:100530000003E001F00000000000000000000000E7
:100540000007C000F80000000000000000000000EC
:10055000000780007800000000000000000000009C
:10056000000F80007C000000000000000000000080
:10057000000F80007C000000000000000000000070
:10058000000F00003C000000000000000000000020
:10059000000F00003C000000000000000000000010
:1005A000000F00003C000000000000000000000000
:1005B000000F00003C0000000000000000000000F0
:1005C000000F00003C0000000000000000000000E0
:1005D000000F00003C0000000000000000000000D0
:1005E000000F00003C0000000000000000000000C0
:1005F000000F00003C0000000000000000000000B0
:10060000000F00003C00000000000000000000009F
:10061000000F00003C00000000000000000000008F
:10062000000F00003C00000000000000000000007F
:10063000007FFFFFFF8000000000000000000000BE
:1006400001FFFFFFFFE000000000000000000000CD
:1006500003FFFFFFFFF000000000000000000000AB
:1006600007FFFFFFFFF8000000000000000000008F
:100670000FFFFFFFFFFC0000000000000000000073
:100680000FFFFFFFFFFC0000000000000000000063
:100690000FFFFFFFFFFC0000000000000000000053
:1006A0001FFFFFFFFFFE0000000000000000000031
:1006B0001FFFFFFFFFFE0000000000000000000021
:1006C0001FFFFFFFFFFE0000000000000000000011
:1006D0001FFFFFFFFFFE0000000000000000000001
:1006E0001FFFFE1FFFFE00000000000000000000D2
:1006F0001FFFFC0FFFFE00000000000000000000D4
:100700001FFFF807FFFE00000000000000000000CF
:100710001FFFF003FFFE00000000000000000000CB
:100720001FFFF003FFFE00000000000000000000BB
:100730001FFFF003FFFE00000000000000000000AB
:100740001FFFF807FFFE000000000000000000008F
:100750001FFFFC0FFFFE0000000000000000000073
:100760001FFFFE1FFFFE0000000000000000000051
:100770001FFFFE1FFFFE0000000000000000000041
:100780001FFFFE1FFFFE0000000000000000000031
:100790001FFFFE1FFFFE0000000000000000000021
:1007A0001FFFFE1FFFFE0000000000000000000011
:1007B0001FFFFE1FFFFE0000000000000000000001
:1007C0001FFFFE1FFFFE00000000000000000000F1
:1007D0001FFFFF3FFFFE00000000000000000000C0
:1007E0001FFFFFFFFFFE00000000000000000000F0
:1007F0001FFFFFFFFFFE00000000000000000000E0
:100800000FFFFFFFFFFC00000000000000000000E1
:100810000FFFFFFFFFFC00000000000000000000D1
:100820000FFFFFFFFFFC00000000000000000000C1
:1008300007FFFFFFFFF800000000000000000000BD
:1008400003FFFFFFFFF000000000000000000000B9
:1008500000FFFFFFFFC000000000000000000000DC
:10086000001FFFFFFE00000000000000000000006D
:10087000000000000000000000080002010000036A
:10088000040700000000000000000102040810201E
:100890004080010204081020010204081020040412
:1008A0000404040404040202020202020303030318
:1008B00003030000000023002600290000000000C0
:1008C000250028002B0000000000240027002A003B
:1008D000FFD0FFE0FFCFFF64FFD1FF32380C0602EC
:1008E00001FF64FFD0FFFE01050800FF06012102A1
:1008F0003520FFFF07FF06FF0900502216568080B3
:1009000080800080153353A0A0A00257575050F8A4
:1009100050F850500257572070A07028702013359F
:100920005580A040A02002475740A0A040A0A05062
:10093000251353808080122656408080808040128C
:1009400026568040404040800245559060F06090BF
:100950000255552020F82020113353604080044177
:1009600051F011335340E0400246561010204080B1
:100970008012365640A0A0A0A04012365640C0407B
:100980004040E00246566090106080F0024656F00B
:1009900020601090600246562060A0F020200246A1
:1009A00056F080E01090600246566080E0909060C3
:1009B000024656F01020204040024656609060905B
:1009C0009060024656609090701060122555C0C02D
:1009D00000C0C0113656606000604080123656205C
:1009E0004080804020034353F000F0123656804090
:1009F0002020408012365640A02040004001585828
:100A0000304898A8A8904030024656609090F090E8
:100A100090024656E090E09090E00246566090804A
:100A2000809060024656E090909090E0024656F02A
:100A300080E08080F0024656F080E08080800246B0
:100A400056609080B090600246569090F0909090E2
:100A5000123656E040404040E002465670202020CA
:100A6000A04002465690A0C0A0A0900246568080AA
:100A7000808080F002465690F0F0909090024656AA
:100A800090D0F0B0B0900246566090909090600286
:100A90004656E09090E08080014757609090D0B03B
:100AA0006010024656E09090E090900246566090AA
:100AB00040209060123656E040404040400246568A
:100AC0009090909090600246569090909060600256
:100AD0004656909090F0F09002465690906060904C
:100AE00090025656888850202020024656F010204A
:100AF0004080F0123656E080808080E002465680CA
:100B00008040201010123656E020202020E01632BF
:100B10005240A0014151F0162252804002445470CC
:100B20009090700246568080E09090E012345460BD
:100B3000808060024656101070909070024454609D
:100B4000B0C060024656205040E04040014555602C
:100B5000907010600246568080E090909012365659
:100B60004000C04040E01137572000202020A04026
:100B7000024656808090E09090123656C040404029
:100B800040E0025454D0A8A8A8024454E0909090A9
:100B900002445460909060014555E090E0808001EF
:100BA00045557090701010024454A0D080801234CB
:100BB0005460C020C00246564040E04050200244ED
:100BC0005490909070123454A0A0A04002545488C5
:100BD000A8A85002445490606090014555909070D0
:100BE0009060024454F02040F0024757304020C04B
:100BF000204030221656808080808080024757C077
:100C00002040304020C006425250A0FFFFFFFFFFAF
:100C1000FFFFFFFFFFFFFFFFFFFFFFFFFFFFFFFFE4
:100C2000FFFFFFFFFFFFFFFFFFFFFFFF0900502255
:100C300016568000808080800146562070A0A070EB
:100C4000200246562050E04050A002555588705072
:100C500070880256568850F820F820221757808056
:100C600080008080800247577080E0907010E0170D
:100C70003151A002565670A8C8C8A87014355560E6
:100C8000A06000E003435350A050123353E02020F3
:100C9000143151E002565670E8D8E8D87017315137
:100CA000E015335340A04012355540E04000E014B9
:100CB000355540A02040E0143555C020C020C01656
:100CC00022524080014555909090E080025656781F
:100CD000E8E86828282411518011225240801435F8
:100CE0005540C04040E014355540A04000E003436B
:100CF00053A050A0024757808080A060F020024798
:100D0000578080A0D010207002475780408060A09C
:100D1000F02012365640004080A040024757402045
:100D20006090F0909002475720406090F0909002C1
:100D3000475760906090F0909002475750A06090A5
:100D4000F0909002475790006090F09090024757C3
:100D500060906090F0909002465670A0A0F0A0B015
:100D6000014757609080809060400247574020F0D4
:100D700080E080F00247572040F080E080F002479A
:100D8000576090F080E080F00247579000F080E0DC
:100D900080F01237578040E0404040E01237572043
:100DA00040E0404040E012375740A0E0404040E083
:100DB000123757A000E0404040E00256567048E825
:100DC00048487002475750A090D0B09090024757C3
:100DD0004020609090906002475720406090909033
:100DE000600247576090609090906002475750A013
:100DF00060909090600247579000609090906012D1
:100E00003353A040A002465670B0B0D0D0E00247A5
:100E100057402090909090600247572040909090CB
:100E20009060024757609090909090600247579072
:100E300000909090906002575710208850202020FA
:100E400002465680E09090E0800246566090A0A056
:100E500090A00247574020007090907002475720A2
:100E60004000709090700247572050007090907032
:100E700002475750A0007090907002465650007084
:100E80009090700247576090607090907002545438
:100E9000F068B07811355560808060400247574057
:100EA000200060B0C06002475720400060B0C060C2
:100EB00002475760900060B0C06002465650006024
:100EC000B0C060123757804000C04040E012375732
:100ED000204000C04040E012375740A000C04040D2
:100EE000E0123656A000C04040E0024757A040A0A4
:100EF0001070906002475750A000E0909090024719
:100F0000574020006090906002475720400060905A
:100F10009060024757609000609090600247575081
:100F2000A000609090600246569000609090601221
:100F300035554000E0004002445470B0D0E0024714
:100F400057402000909090700247572040009090AA
:100F500090700247576090009090907002465690B3
:100F600000909090700148582040009090709060E0
:100F70000147578080E090E08080014757900090C3
:100F8000907090602F093711871E540A11241FBEDC
:100F9000CFEFD8E0DEBFCDBF14E0A0E0B1E0ECE3DE
:100FA000FFE502C005900D92AA30B107D9F726E0FF
:100FB000AAE0B4E001C01D92A133B207E1F717E047
:100FC000C5ECD7E004C02197FE010E94502AC23C24
:100FD000D107C9F70E94B51E0C94912F0C94000004
:100FE00040E050EF60EA76E48EE194E00C94AB0CC4
:100FF0006AE08EE194E00C949B0C2F923F924F920A
:101000005F926F927F928F929F92AF92BF92CF9298
:10101000DF92EF92FF920F931F93CF93DF9300D055
:1010200000D000D0CDB7DEB77A8369831A013E8342
:101030002D8320910A0430910B044D815E81241789
:10104000350709F48AC0465F5F4F2417350709F456
:1010500084C04D815E814A5051092417350709F437
:101060007CC08D809E80821A930A97FE03C0919463
:101070008194910800E010E03C01C4010A969C8331
:101080008B8374019AE0E91AF1086401E4E1CE0E61
:10109000D11C5401F4E1AF1AB10829813A81021739
:1010A0001307A4F080910A0490910B044D815E8196
:1010B00048175907FCF563E871E08EEF94E00E9451
:1010C000051F8EEF94E00E94071F34C02301F30137
:1010D000808191810E94CB0A8816990609F45CC030
:1010E000F301808191810E94CB0A2B813C81821780
:1010F000930709F451C0F301808191810E94CB0ACA
:101100008E159F0509F448C0F301808191810E94EA
:10111000CB0A8C159D0509F43FC0F2E06F0E711CDF
:10112000F201808191810E94CB0A8A159B0509F00A
:1011300093C032C080910A0490910B042D813E81AE
:101140008217930754F468EC71E08EEF94E00E94EC
:10115000051F8EEF94E00E94071F4D815E81509322
:101160000B0440930A0426960FB6F894DEBF0FBE18
:10117000CDBFDF91CF911F910F91FF90EF90DF9046
:10118000CF90BF90AF909F908F907F906F905F9027
:101190004F903F902F90089580910A0490910B04F6
:1011A000ED81FE81E817F9070CF053C0B101F2019F
:1011B000808191810E94CF0AB1018EEF94E00E945C
:1011C000051F64E571E08EEF94E00E94051FF201B7
:1011D000808191810E94F40ABC018EEF94E00E940C
:1011E000051F6FE571E08EEF94E00E94051F8EEF02
:1011F00094E00E94071F81E090E020910A04309162
:101200000B044D815E8124173507FCF46BE771E018
:10121000F201808191810E94CF0AB1018EEF94E0AA
:101220000E94051F6BE671E08EEF94E00E94051F9F
:10123000F201808191810E94F40ABC018EEF94E05A
:101240000E94051F68E771E080CF892B09F085CFE8
:1012500029CF80E090E0D1CF0F5F1F4F1ECF20E855
:101260004FE06EE08EE194E00C942A0C4F925F9276
:101270006F927F928F929F92AF92BF92CF92DF92A6
:10128000EF92FF92CF93DF93CDB7DEB728970FB6DB
:10129000F894DEBF0FBECDBF80911C0490911D0459
:1012A0008130910599F08230910539F1892BB1F5A2
:1012B00061E08EE194E00E948D0C609318047093BD
:1012C000190480931A0490931B040DC061E08EE111
:1012D00094E00E948D0C6093140470931504809325
:1012E00016049093170480911C0490911D0401969C
:1012F00090931D0480931C0411C061E08EE194E082
:101300000E948D0C6093100470931104809312045A
:101310009093130410921D0410921C0480901404E6
:1013200090901504A0901604B0901704C090180473
:10133000D0901904E0901A04F0901B042AE037EDD5
:1013400043E25CE3C501B4010E94AE1AA701960115
:101350000E94791C18160CF06DC02AE037ED43E2AC
:101360005CE3C501B4010E94AD1A9B01AC01C70149
:10137000B6010E94791C18160CF05CC04090100455
:101380005090110460901204709013042AE037ED1D
:1013900043E25CE3C301B2010E94AE1A69837A831F
:1013A0008B839C839B01AC01C701B6010E941A1B71
:1013B00087FF40C02AE037ED43E25CE3C301B2019E
:1013C0000E94AD1A6D837E838F8398879B01AC0149
:1013D000C701B6010E94791C181664F529813A816B
:1013E0004B815C81C501B4010E941A1B87FF22C09A
:1013F0002D813E814F815885C501B4010E94791C21
:101400001816C4F4A3019201C501B4010E94AE1ADA
:10141000A70196010E94AE1A20E030E040E450E4BB
:101420000E941F1B60930C0470930D0480930E04A4
:1014300090930F048EEF94E00E94EB1C892B41F0F7
:101440008EEF94E00E94051D843711F40E94F80786
:1014500020E030E048EC52E460910C0470910D04FF
:1014600080910E0490910F040E947E1C0E94911B9B
:101470002AE0269FA001279F500D1124CA0128961B
:101480000FB6F894DEBF0FBECDBFDF91CF91FF90B6
:10149000EF90DF90CF90BF90AF909F908F907F9014
:1014A0006F905F904F9008958EE194E00C94960BAE
:1014B0008F929F92AF92BF92CF92DF92EF92FF9264
:1014C0000F931F93CF93DF935C016B017A01490166
:1014D0008AE090E00E94562AEC01892B21F481E0F9
:1014E00090E00E94912FB982A882F601019000201D
:1014F000E9F7CF018C199D090E94562A9B838A83A4
:10150000009769F3F60101900020E9F7AF014C194B
:101510005D09B6010E94632CF70101900020E9F7F4
:10152000CF018E199F090E94562A9D838C830097B4
:10153000B1F2F70101900020E9F7AF014E195F0900
:10154000B7010E94632C9F828E82F80101900020D7
:10155000E9F7CF01801B910B0E94562A9987888753
:10156000009709F4BCCFF80101900020E9F7AF0122
:10157000401B510BB8010E94632CCE01DF91CF912B
:101580001F910F91FF90EF90DF90CF90BF90AF90A1
:101590009F908F900895FC018681978108950F9305
:1015A0001F93CF93DF938C01EB01FC018085918524
:1015B0000E94EE2AFE0101900020E9F7CF018C1B6A
:1015C0009D0B0E94562AF80191878087FE010190A9
:1015D0000020E9F7AF014C1B5D0BBE01DF91CF91FD
:1015E0001F910F910C94632CFC01828193810895CB
:1015F0000F931F93CF93DF93CDB7DEB7E6970FB668
:10160000F894DEBF0FBECDBF8230910581F18330EB
:10161000910509F455C0019709F07DC08BE0EDE01C
:10162000F2E0DE01929601900D928A95E1F78FE14A
:10163000E8E1F2E0DE01119601900D928A95E1F762
:1016400088E0E7E3F2E0DE019F9601900D928A9533
:10165000E1F78E01015D1F4F26E732E0AE014F5FDB
:101660005F4FBE016E5D7F4F80E090E051C089E02A
:10167000EFE3F2E0DE01929601900D928A95E1F798
:1016800083E1E8E4F2E0DE01119601900D928A9583
:10169000E1F788E0E7E3F2E0DE019F9601900D922A
:1016A0008A95E1F78E01015D1F4F26E633E0AE011A
:1016B0004F5F5F4FBE016E5D7F4F81E090E028C0BD
:1016C0008DE0EBE5F2E0DE01929601900D928A95B5
:1016D000E1F781E2E8E6F2E0DE01119601900D9279
:1016E0008A95E1F788E0E7E3F2E0DE019F9601905A
:1016F0000D928A95E1F78E01015D1F4F2EE630E0D5
:10170000AE014F5F5F4FBE016E5D7F4F82E090E0A4
:101710000E94580A00C0E6960FB6F894DEBF0FBECE
:10172000CDBFDF91CF911F910F91089508950C9433
:10173000C41E0895FC0183810E94F92021E0892BB9
:1017400009F020E0822F0895CF92DF92FF920F934D
:101750001F93CF93DF93EC01CE010E949A0B882355
:10176000D9F341E06A818B810E942221082F41E058
:101770006A818B810E942221182F41E06A818B812E
:101780000E942221F82EC12CD12C8C8190E0C81609
:10179000D90660F461E08A810E94CA2060E08A81F3
:1017A0000E94CA202FEFC21AD20AEFCF812F90E0F9
:1017B000A0E0B0E0BA2FA92F982F8827A02BAC016A
:1017C000BD014F29802F880F880B90E0A0E0B0E08A
:1017D000B82FAA27992788278A019B01082B192B44
:1017E0002A2B3B2BC901B801DF91CF911F910F919B
:1017F000FF90DF90CF900895CF93DF93EC0160349A
:1018000041F0603821F0603231F482E003C081E0C1
:1018100001C083E08C8360E08A810E94CA20CE01EF
:10182000DF91CF910C94A40B1F93CF93DF93EC0126
:10183000842F122F4A836B8361E00E948E2060E028
:101840008B810E948E20612FCE01DF91CF911F915D
:101850000C94FC0BCF92DF92EF92FF92EDE8F2E056
:10186000DC011196FC93EE93FC011582168217821F
:101870001086C12CD12C30E8E32E3FE3F32E1996CD
:10188000CD92DD92ED92FC921C97FF90EF90DF904D
:10189000CF900C94140CCF92DF92EF92FF920F93A3
:1018A0001F93CF93DF938C01D62FC0E0C12CD12C96
:1018B0007601CD1749F0C8010E94A40BC60ED71EB1
:1018C000E81EF91ECF5FF5CF2C2F30E040E050E04E
:1018D000C701B6010E94312ACA01B901DF91CF9137
:1018E0001F910F91FF90EF90DF90CF9008950F938D
:1018F0001F93CF93DF93EC010E944B0C0D811E814F
:101900002F813885601B710B820B930B0E94C91BC2
:10191000DF91CF911F910F910895CF93DF93EC0149
:101920000E94770C29853A854B855C850E941F1B98
:10193000DF91CF910895CF93DF93EC010E944B0C80
:101940000E94C91B0E94911B6D837E838F839887A1
:10195000DF91CF910895FC01418752876387748797
:101960000895FC011082138214820895862F0C942E
:10197000F920862F642F0C94CA20862F642F0C9494
:101980008E204F925F926F927F928F929F92AF9232
:10199000BF92CF92DF92EF920F93CF93DF93EC0140
:1019A0006B014A01590102960E94B10C85E992E04F
:1019B000998388832E018BE1480E511C3E018DE4F2
:1019C000680E711CC2010E94B10C85E0480E511CCA
:1019D00046145704B9F7FE01E95AFF4F91828082FD
:1019E0003296B182A082329600833196E082379798
:1019F000D182C08238968AE090E0918380833296CB
:101A000084EF91E0918380833396118210827197E5
:101A10001082118212821382CF59DF4F1882DF9118
:101A2000CF910F91EF90DF90CF90BF90AF909F90AC
:101A30008F907F906F905F904F9008952F923F927C
:101A40004F925F926F927F928F929F92AF92BF92CE
:101A5000CF92DF92EF92FF920F931F93CF93DF937A
:101A6000CDB7DEB728970FB6F894DEBF0FBECDBF57
:101A700098878F8310E05C012BE5A20EB11C7C01DE
:101A800037E5E30EF11CD5018C911817B8F0312C15
:101A9000EF81F885E45AFF4FFC83EB83CF80D88435
:101AA000F9E5CF0ED11C412C512C320143942F81EA
:101AB0003885295A3F4F3E832D8360C0F701A081AE
:101AC000B181A10FB11DEF81F88580819181FC0169
:101AD0002081318142E06C918F819885F9010995CF
:101AE0001F5FD1CF022D10E0AD81BE818D919C9101
:101AF000DC01A00FB11F0480F581E02D6C918F8176
:101B000098850995000F111FEF81F885E00FF11FEF
:101B1000892B09F06FC08781908529813A81822BBA
:101B2000932B908787832394D5018C91AF81B885BF
:101B3000ED91FC912816B0F2D6018D919C91DC01BB
:101B4000AE0DBF1D0280F381E02D41E06C918F81CD
:101B500098850995F60180819181DC01AE0DBF1D4C
:101B6000EF81F88580819181FC012081318140E005
:101B70006C918F819885F90109953394AB81BC8173
:101B80008C913816E0F5E32CF12CF601A081B1819F
:101B9000AE0DBF1DEF81F88580819181FC01208110
:101BA000318141E06C918F819885F9010995F601A9
:101BB000A081B181AE0DBF1DEF81F885808191813B
:101BC000FC012281338140E06C918F819885F9017D
:101BD0000995D301C201032C04C0880F991FAA1FC5
:101BE000BB1F0A94D2F79A8389834C018094909406
:101BF000212C9ACF878190858821992192CF289690
:101C00000FB6F894DEBF0FBECDBFDF91CF911F910D
:101C10000F91FF90EF90DF90CF90BF90AF909F908B
:101C20008F907F906F905F904F903F902F9008958E
:101C3000FC0180E090E0248D358D2617370739F0C0
:101C4000019635968A309105B1F78FEF9FEF089591
:101C5000DC0125E0629FA00DB11D11245E964C931E
:101C60005E9721E05F962C935F97FC01EF59FF4F41
:101C7000208131960190F081E02D222331F03097C0
:101C800049F0611107C0DC0102C0309719F05B9682
:101C90008C9109940895CF92DF92EF92FF920F9367
:101CA0001F93CF93DF93EC01162F042FFC0185E0E7
:101CB000689FE00DF11D1124178E868D8130B1F0E3
:101CC00030F0823071F18330D9F540E02DC04423EB
:101CD000B9F141E0CE010E94280E0E94B21FC35B01
:101CE000DF4F688379838A839B832AC00E94B21F57
:101CF000FE01E35BFF4FC080D180E280F380AB0147
:101D0000BC014C195D096E097F0972968081918131
:101D1000A0E0B0E084179507A607B70710F442E0EB
:101D200003C001110DC043E0612FCE01DF91CF91BF
:101D30001F910F91FF90EF90DF90CF900C94280EA1
:101D4000DF91CF911F910F91FF90EF90DF90CF9097
:101D500008952F923F924F925F926F927F928F924F
:101D60009F92AF92BF92CF92DF92EF92FF920F932A
:101D70001F93CF93DF9300D000D000D0CDB7DEB754
:101D80009E838D837C015C0122E3A20EB11CFC01C9
:101D90008FEF9FEF268D211104C0138E958F848FB6
:101DA000178E3596AE16BF06A9F7512C8D819E81F0
:101DB000855A9F4F9A838983AD81BE81A45ABF4FB4
:101DC000BC83AB836D807E80B5E56B0E711C85E0B6
:101DD000282EE981FA818081581608F059C0412CDB
:101DE0000D811E81050D111D050D111D095F1F4F70
:101DF000AB81BC818C90481408F048C0F801C080C9
:101E0000D180042C02C0D694C7940A94E2F7FC2D2A
:101E1000F1703F2E589C40011124840C911CB40198
:101E20008D819E810E94180E97FD05C0432D682F5D
:101E30008D819E8120C0019639F5C0FE25C0ED81BF
:101E4000FE8160E070E0838D811118C0D301ED91B7
:101E5000FC91E80DF91D8081269EF001279EF00D72
:101E600011242D813E81E20FF31F838F958E848E86
:101E7000168E432DC9010E944B0E06C06F5F7F4F27
:101E800035966A307105F9F64394B2CF5394A1CFD9
:101E900080E0D7015F969C91911181E0B5E0EB0E57
:101EA000F11CAE14BF04A9F726960FB6F894DEBF56
:101EB0000FBECDBFDF91CF911F910F91FF90EF909B
:101EC000DF90CF90BF90AF909F908F907F906F905A
:101ED0005F904F903F902F900895CF92DF92EF92B6
:101EE000FF920F931F93CF93DF93EC010E94B21FD9
:101EF0008E010F5A1F4FF801C080D180E280F3801D
:101F0000AB01BC014C195D096E097F093C968081CB
:101F10009181A0E0B0E084179507A607B70778F491
:101F2000CE010E941E0DCE010E94A90EC82F0E9454
:101F3000B21FF801608371838283938301C0C0E084
:101F40008C2FDF91CF911F910F91FF90EF90DF9039
:101F5000CF9008950F931F93CF93DF93EC018C01E3
:101F60000F591F4F81E0F8018083CE010E946D0F51
:101F7000882341F08F8D882329F08E8D813011F4D4
:101F80008B8D03C0F801108280E0DF91CF911F910B
:101F90000F91089580E090E008950895CF93DF9326
:101FA000EC01262F4CAD6BAD04960E9428259BAD0D
:101FB000890F8BAF81E090E0DF91CF9108950F936F
:101FC0001F93CF93DF9326E040E855E260E070E096
:101FD0008EEF94E00E94C01D0E9428188DEC94E0C2
:101FE0000E94C6146BE972E08EEF94E00E94051F18
:101FF0008EEF94E00E94071F61E080E10E948E2036
:1020000060E08EE00E948E2061E08FE00E948E20D2
:102010000E94F8070E94F0070E94F80786E090E00F
:102020000E94562AEC019093F2048093F10481E01F
:1020300090E00E942C1A99838883C091F104D0917A
:10204000F20482E090E00E942C1A9B838A83C09164
:10205000F104D091F20483E090E00E942C1A9D8359
:102060008C83C3E0D0E0D093EE04C093ED0486E00F
:1020700090E00E94562A8C019093F0048093EF0424
:1020800081E090E00E94F80AF8019183808300913A
:10209000EF041091F00482E090E00E94F80AF80149
:1020A000938382830091EF041091F00483E090E029
:1020B0000E94F80AF80195838483D093EC04C093BE
:1020C000EB04DF91CF911F910F9108950F931F9310
:1020D000CF93DF93CDB7DEB7EE970FB6F894DEBFA0
:1020E0000FBECDBF8BE294E00E94AA0F282F30E0F4
:1020F0003093F4042093F3046FED74E00E946D11AB
:102100008091F3049091F404892B09F072C08DEC56
:1021100094E00E94F617882309F46BC08091200197
:10212000909121010E94B71960E080E10E94CA20CD
:1021300000911E0110911F014091F3045091F4048D
:102140006091ED047091EE042FED34E08091F10484
:102150009091F2040E949C119093210180932001A0
:10216000019739F520911E0130911F014091ED0436
:102170005091EE046091F1047091F2048FE693E0C7
:102180009A8389838CE0EFECF4E0DE0113960190F2
:102190000D928A95E1F78091DB048F878091DC04B2
:1021A000888BCE0101960E94131290932101809397
:1021B00020010E9436099093DE048093DD04409153
:1021C0001E0150911F016091EB047091EC049C0181
:1021D0008091EF049091F0040E94FD07EE960FB6F7
:1021E000F894DEBF0FBECDBFDF91CF911F910F914D
:1021F00008958091CC04811107C081E08093CC04C4
:1022000083E994E00E94B32683E994E00E94E526E6
:1022100009ED12E02091F3046091200170912101F9
:1022200080919104909192049C838B8387E3E3E9EE
:10223000F4E0DE01159601900D928A95E1F7809108
:10224000CA048CAF8091CB048DAF8091CC048EAF4B
:102250001A8309834FED54E0CE0101960E946A195A
:1022600083E994E00E94EA268111D4CF57CFCF9220
:10227000EF920F93CF93DF9340E06AE08DEC94E010
:102280000E94A213CFE8D4E01B821A828DEC92E068
:102290009983888380E1C82EEE24EA9403E122E149
:1022A00041E162E271E0CE010E94CB2789ED92E02C
:1022B0009983888394E0E92E04E026E031E04AE047
:1022C00051E06EE071E08BE294E00E94C10CDF917E
:1022D000CF910F91EF90CF9008952091F504309118
:1022E000F604263031052CF490ED980F9A3078F0F2
:1022F00008951092F6041092F504FB019B01245FEF
:102300003F4F11921192E217F307D9F7EDCF2091C9
:10231000F5043091F604A901440F551FFB01E40FA9
:10232000F51F90E0C097918380832F5F3F4F3093DC
:10233000F6042093F50408956F927F928F929F92F6
:10234000AF92BF92CF92DF92EF92FF920F931F93C3
:10235000CF93DF93405351094A30510508F052C0E2
:1023600049015B01EC01C12CD12CCA14DB040CF037
:1023700049C07E012296D7018D919C910E94241A1A
:10238000F401AC01445F5F4F20E030E0DC016D9070
:102390007D90CD01619171916616770611F42F5FE2
:1023A0003F4F8417950791F72630310539F561E0E5
:1023B00080E10E94CA20F701808191810E941A1A4F
:1023C000EC01FC0101900020E9F7AF01481B590B1B
:1023D000BC01C8010E94632C61EE72E08EEF94E0B4
:1023E0000E94051FBE018EEF94E00E94051F8EEF34
:1023F00094E00E94071F82E090E006C0FFEFCF1A32
:10240000DF0AB3CF81E090E0DF91CF911F910F9170
:10241000FF90EF90DF90CF90BF90AF909F908F9004
:102420007F906F9008956F927F928F929F92AF925C
:10243000BF92CF92DF92EF92FF920F931F93CF93B1
:10244000DF93CDB7DEB72C970FB6F894DEBF0FBE83
:10245000CDBF4C013B016A0159010E94F617811161
:1024600003C001E010E0C1C0C4010E940B13882327
:10247000C1F36AE173E08EEF94E00E94051F60EF04
:1024800073E0CE0107960E94CB2110E0F401828117
:10249000181708F044C07401E10EF11CF7018381A4
:1024A000803118F066EC71E002C067E173E08EEFF6
:1024B00094E00E94051F40E150E0F70163818EEF38
:1024C00094E00E94611FF7018381803118F066EC6F
:1024D00071E002C067E173E0CE0101960E94CB215A
:1024E000BE016F5F7F4FCE0107960E945222CE0140
:1024F00001960E945D2140E1F7016381CE010196C2
:102500000E94F721BE016F5F7F4FCE0107960E94A8
:102510005222CE0101960E945D211F5FB7CF8EEF40
:1025200094E00E94071F67E273E08EEF94E00E9440
:10253000051FCE0107960E94BD228301E12CF12CDC
:10254000EC14FD040CF04BC038010E5F1F4FF3017B
:10255000808191810E94131A4C012B853C8541E0BA
:1025600050E0BE01695F7F4FCE0101960E94782244
:10257000B401CE0101960E945922982ECE010196F7
:102580000E945D21992039F1F301808191810E949F
:102590001A1A8C01FC0101900020E9F7AF01481BD9
:1025A000590BBC01C5010E94632C63E373E08EEFFD
:1025B00094E00E94051FB8018EEF94E00E94051F71
:1025C00061E080E10E94CA208EEF94E00E94071F24
:1025D00002E010E006C0FFEFEF1AFF0AB1CF01E002
:1025E00010E0CE0107960E945D21C8012C960FB61F
:1025F000F894DEBF0FBECDBFDF91CF911F910F9139
:10260000FF90EF90DF90CF90BF90AF909F908F9012
:102610007F906F900895BC016E5F7F4FDC01ED915C
:10262000FC910190F081E02D40E0099591E081114D
:1026300090E0892F08952091F904222399F04FB753
:10264000F8942091F904213059F42DB32093F70424
:102650003DB32091F804209523232DBB4FBF02C02A
:102660004093F7048CBD9DBD08958EBD00000DB450
:1026700007FEFDCF8EB508958091F904882361F09F
:102680009FB7F8942091F9048091F704213019F450
:102690008DBB9FBF08958FBF0895AF92BF92CF9219
:1026A000DF92EF92FF920F931F93CF93DF936C0112
:1026B000A42E79016068B62E83E590E00E941B137A
:1026C00060E0F60186850E94CA20AA948B2D0E94A4
:1026D00035130023A1F0CFEFD0E001C0CC0F0A9555
:1026E000EAF78B2D0E9435132C2F2095F70190814E
:1026F00092238C23892BF701808311E001C010E025
:10270000812F90E0E701C80FD91F1A1530F48B2DE7
:102710000E94351388831F5FF3CF80E00E9435133A
:10272000888361E0F60186850E94CA20DF91CF91FF
:102730001F910F91FF90EF90DF90CF90BF90AF90DF
:102740000C943C13FC018FE693E0918380836687B1
:10275000478708950F931F93CF93DF93EC01062FC4
:10276000142F83E590E00E941B1360E08E850E9489
:10277000CA20802F0E943513812F0E94351361E0FB
:102780008E850E94CA20DF91CF911F910F910C94EA
:102790003C13DF92EF92FF920F931F93CF93DF933F
:1027A0008C01C62FF42ED22EE32E83E590E00E94FA
:1027B0001B1360E0F80186850E94CA208C2F0E94BE
:1027C0003513CD2DDE2DCE018F0D911D7C01EC1624
:1027D000FD0621F089910E943513F9CF61E0F801DF
:1027E00086850E94CA20DF91CF911F910F91FF90A3
:1027F000EF90DF900C943C131F93CF93DF93EC0189
:10280000162F83E590E00E941B1360E08E850E94E6
:10281000CA20812F80680E94351380E00E94351302
:10282000182F61E08E850E94CA200E943C13812FE0
:10283000DF91CF911F9108950F9341110E944D1385
:102840000F9108950F931F93CF93DF938C01D62F91
:10285000C42F0E94FC13482F4C2B6D2FC801DF9111
:10286000CF911F910F910C94AA130F931F93CF93A5
:10287000DF938C01D62FC42F0E94FC13C0954C2FE0
:1028800048236D2FC801DF91CF911F910F910C94B8
:10289000AA13CF92DF92EF92FF920F931F93CF93E1
:1028A000DF93EC016B01142F790140E062E00E949C
:1028B000AA1344E06AE0CE010E94AA1340E864E152
:1028C000CE010E94AA139601412F62E1CE010E941F
:1028D000C91343E062E0CE010E94AA1308E813E1A5
:1028E0006AE0CE010E94FC1382FF13C040E062E068
:1028F000CE010E94AA1364E4CE010E94FC13F701EA
:10290000808362E4CE010E94FC13F701818380E0A2
:1029100004C00150110921F783E0DF91CF911F918D
:102920000F91FF90EF90DF90CF9008950F931F933A
:10293000CF938C014FE062E00E94AA13C3E062E3F0
:1029400070E080E090E00E94E31F62E0C8010E9416
:10295000FC1384FF02C0C15091F7CF911F910F91DA
:102960000895CF93DF93EC0168E20E94FC13982F47
:102970009370933041F0482F436068E2CE01DF91BD
:10298000CF910C94AA13DF91CF910895CF93DF9349
:10299000EC0161E08E850E948E2061E08E850E94B0
:1029A000CA208F858F3F09F451C060E00E948E20BD
:1029B0008F850E94F920892B09F048C061E08F853E
:1029C0000E948E2060E08F850E94CA2082E090E005
:1029D0000E941F2061E08F850E94CA2062E370E0A0
:1029E00080E090E00E94E31F40E064E2CE010E949C
:1029F000AA1340E066E2CE010E94AA1346E268E410
:102A0000CE010E94AA1340E864E5CE010E94AA13F9
:102A100049EA66E5CE010E94AA1343E068E5CE01CB
:102A20000E94AA1348EE6AE5CE010E94AA1340E470
:102A30006AE2CE010E94AA134DE362E2CE010E9437
:102A4000AA13CE01DF91CF910C94B114CE010E9454
:102A50009614CACF3F924F925F926F927F928F925D
:102A60009F92AF92BF92CF92DF92EF92FF920F931D
:102A70001F93CF93DF9300D0CDB7DEB73C01162F65
:102A8000942E2901A114B10419F0F501408101C06F
:102A900040E0342EF0E18F9E300C112440E062E0E3
:102AA000C3010E94AA134FE768E0C3010E94AA1362
:102AB00040E864E1C3010E94AA139201402F62E141
:102AC000C3010E94C913432D6AE1C3010E94AA13E6
:102AD000412F62E0C3010E94AA131C3029F440E890
:102AE0006AE1C3010E94221400ED17E068E0C3010F
:102AF0000E94FC13982F992139F480FD03C00150E6
:102B00001109A1F783E065C06CE0C3010E94FC13CA
:102B1000182F837109F05AC0E114F104F9F0C114BF
:102B2000D104E1F064E1C3010E94FC13F60190813D
:102B3000981708F445C08083082D9701482F62E15B
:102B4000C3010E941C1468E1C3010E94FC1387703A
:102B5000A114B10421F0F501808301C080E013FDD0
:102B600031C0E114F10481F1C114D10469F19E89ED
:102B7000992351F1F6014081413021F4843041F52F
:102B80008FEF27C0423020F1811122C042509E01B8
:102B90002F5F3F4FB701C3010E944914811119C033
:102BA000F6018081E80EF11CF7013297908189814E
:102BB00098130EC0319690818A81981309C004C081
:102BC00084E007C082E005C080E003C081E001C06E
:102BD00087E00F900F90DF91CF911F910F91FF90A1
:102BE000EF90DF90CF90BF90AF909F908F907F90AD
:102BF0006F905F904F903F9008958F92AF92BF92E9
:102C0000CF92DF92EF92FF920F931F93AF928C2C93
:102C1000570168017901042F9B0140E36CE00E9499
:102C20002A150F901F910F91FF90EF90DF90CF909A
:102C3000BF90AF908F9008952F923F924F925F92E6
:102C40006F927F928F929F92AF92BF92CF92DF92BC
:102C5000EF92FF920F931F93CF93DF93CDB7DEB721
:102C60002C970FB6F894DEBF0FBECDBF413508F0EC
:102C700005C1342E3B014C0140E86CE10E94351443
:102C80002224239432E0231691F083E02816E1F009
:102C900091E02912F7C083E989833320D1F081E0E4
:102CA000F3019081953008F480E0B12C17C0F5E96C
:102CB000F983332081F081E0F3019081983008F4AA
:102CC00080E043E0B42E0AC087E9898336E0B32E62
:102CD00004C0B12C02C023E0B22E80E0D32CF8E077
:102CE000BF9ED0181124D7FCD12C882321F098E85E
:102CF0009B8333E001C032E021E09D2D977009F401
:102D000020E09D2D959595959595290F31F4882373
:102D100009F491C038E0D30E8EC0811102C094E056
:102D200001C093E0291708F4922FEB2DF0E03196C3
:102D3000E60DF71D232F4191A1E0B0E0AC0FBD1FC0
:102D4000A20FB11D4C932F5F422F431B491798F3DD
:102D5000DECF8111DDC09FE19D150CF495C080E2AE
:102D6000D82E90E79A839B818C8189279D81892722
:102D70009E8189278F839E01285F3F4F47E0BE01D8
:102D80006F5F7F4FC4010E9449148111C1C01B862F
:102D9000E3E0EA87CE0107962C0199E09C87CB847B
:102DA0004C2D4295407F4C0D6AE1C4010E94AA134C
:102DB000A12CCE010B967C018E01065F1F4F920164
:102DC0004C85BE016F5F7F4FC4010E94FD158230AC
:102DD00009F0BFCF6CE1C4010E94FC1385FD50C017
:102DE0008F7109F480E2282F30E04D2DDD0C550B5A
:102DF000421753070CF046C0D82E859585958595CA
:102E000091E0980F422F477081E009F480E0890F2C
:102E1000E1E0F0E0EC0FFD1FE80FF11D215031095A
:102E20002770332781E090E001C0880F2A95EAF7E8
:102E30009081892B80838FE18D150CF492CF9D2D8D
:102E400097709B878D2D8595859585958E5F292F0C
:102E5000E0E18E9F200D11242A8321E0911101C011
:102E600020E0280F2C8744244394512C4C0E5D1EE7
:102E7000480E511CF9E0F81BFA8791CF86E048C054
:102E800082E046C085E044C08B818838F1F182E061
:102E900094E0EB2DF0E03196E60DF71D980FA1E0E0
:102EA000B0E0AC0FBD1FA80FB11D2C9121938F5F17
:102EB0009813F5CF8A85833021F58B85811121C048
:102EC0009E012D5F3F4F41E0B201C4010E944914B1
:102ED00081111EC09B81F2018181981314C09C81D5
:102EE0008281981310C0808182FF02C02394CACED1
:102EF000F3018387822D880F820D8F5F808380E0AE
:102F000007C081E005C087E003C083E093E0C1CF44
:102F10002C960FB6F894DEBF0FBECDBFDF91CF91D8
:102F20001F910F91FF90EF90DF90CF90BF90AF90E7
:102F30009F908F907F906F905F904F903F902F90D9
:102F400008954F925F926F927F928F929F92AF926D
:102F5000CF92EF92FF920F931F93CF93DF9300D006
:102F6000CDB7DEB76A834115510539F1F9016081AA
:102F7000623018F149012A013C0140E86CE10E94ED
:102F8000351487E08983A12CC12CCE0101967C01E8
:102F90008401920141E0BE016E5F7F4FC3010E9438
:102FA000FD1581110DC0F4018081823041F481E072
:102FB0009981911105C080E003C084E001C081E0E7
:102FC0000F900F90DF91CF911F910F91FF90EF9095
:102FD000CF90AF909F908F907F906F905F904F9029
:102FE00008959A01AB0166E20C94A1170F931F9309
:102FF000CF93DF9300D01F92CDB7DEB78C0182E074
:103000008B8340E064E2C8010E94AA1340E066E2BC
:10301000C8010E94AA1346E268E4C8010E94AA13EC
:10302000AE014D5F5F4FBE016F5F7F4FC8010E94D1
:10303000F117982F81E0992319F0923009F080E080
:103040000F900F900F90DF91CF911F910F910895E6
:10305000CF93CFB7F8948091FA04811127C0E8EAA2
:10306000F8E08491E4E9F8E09491E82FF0E0EE0FC5
:10307000FF1FEA53F74FA591B491EC91E92321F496
:1030800061E08AE00E94CA2061E08AE00E948E200E
:103090008CB580618CBD8CB580648CBD61E08DE0A9
:1030A0000E948E2061E08BE00E948E208091FA04C5
:1030B0008F5F8093FA04CFBFCF91089504960C944C
:1030C0004025AF92BF92CF92DF92EF92FF920F9383
:1030D0001F93CF936C01C62F5C0184E0A80EB11C36
:1030E00086E7E82E84E0F82E00E420E140E060E08E
:1030F000C5010E94F72267EE78E0C5010E94BB255A
:1031000025E733E04AE060E0C6010E945E1880EDEA
:103110008C0F8A3068F48091FD04C81749F08091C3
:10312000FB049091FC0401969093FC048093FB04B3
:10313000C093FD04C0E000E010E08091FB0490919A
:10314000FC04081719075CF42AE833E044E16C2F0B
:10315000C6010E945E180F5F1F4FCB5FEECF069730
:1031600024F01092FC041092FB04CF911F910F9158
:10317000FF90EF90DF90CF90BF90AF900895CF92E7
:10318000DF92EF92FF920F93CF93DF93EC016C01EC
:1031900084E0C80ED11C86E7E82E80E0F82E00E41B
:1031A00020E140E060E0C6010E94F72267EE78E08F
:1031B000C6010E94BB2525E733E04AE060E0CE016E
:1031C0000E945E1825E833E044E160E0CE010E94F1
:1031D0005E182CE833E042E360E0CE01DF91CF914E
:1031E0000F91FF90EF90DF90CF900C945E18EF92CC
:1031F000FF920F931F93CF93DF93CDB7DEB729973D
:103200000FB6F894DEBF0FBECDBF7C018B0167EE19
:1032100078E004960E94BB25F80183858F93828510
:103220008F9381858F9380858F9387818F938681FC
:103230008F9385818F9384818F9383818F938281F4
:103240008F9381818F9380818F938CE993E09F93FB
:103250008F938E010F5F1F4F1F930F930E94972C28
:10326000980143E160E0C7010E945E180FB6F89430
:10327000DEBF0FBECDBF29960FB6F894DEBF0FBEDE
:10328000CDBFDF91CF911F910F91FF90EF900895E7
:10329000CF93DF93EC0181E094E099838883FB0175
:1032A000828193819B838A8387E33496DE0114961F
:1032B00001900D928A95E1F7FB0183AD8BAF84AD50
:1032C0008CAF85AD8DAF89ED92E099838883DF91D6
:1032D000CF910895FF920F931F93CF93DF93CDB7B4
:1032E000DEB7EE970FB6F894DEBF0FBECDBF8A01F2
:1032F000F22E6230710501F174F46130710559F5F7
:10330000BC01CE0101960E9448196F2DCE01019695
:103310000E94611820C063307105C1F064307105EE
:10332000D1F4BC01CE0101960E944819B801CE012A
:1033300001960E94F7180FC0BC01CE0101960E94B1
:103340004819CE0101960E94BF1805C0BC01CE01EC
:1033500001960E944819EE960FB6F894DEBF0FBE94
:10336000CDBFDF91CF911F910F91FF9008950297EC
:1033700031F468EB7BE080E090E00C94E31F08956B
:10338000AF92BF92CF92DF92EF92FF920F931F9373
:10339000CF93DF935C018B016A0179018CE190E0AE
:1033A0000E94562AEC01009721F481E090E00E94EF
:1033B000912FF501DC01C5010C9621912D93E817A1
:1033C000F907D9F7F80101900020E9F7CF01801B38
:1033D000910B0E94562A9D878C87009731F3F80144
:1033E00001900020E9F7AF01401B510BB8010E948A
:1033F000632CF601DE011E96CE014A962191319191
:103400002D933D93A817B907C9F7FB8EEA8ECE011D
:10341000DF91CF911F910F91FF90EF90DF90CF90B0
:10342000BF90AF900895009721F481E090E00E9452
:10343000912F0895009721F481E090E00E94912F50
:10344000FC01848595850895009721F481E090E042
:103450000E94912F0E960895CF93DF93CDB7DEB7DC
:103460006F970FB6F894DEBF0FBECDBF82309105C7
:1034700029F18330910509F43FC0019709F064C038
:103480008CE0ECEAF3E0DE011D9601900D928A9546
:10349000E1F787E0E2ECF2E0DE01599601900D924F
:1034A0008A95E1F78CE0E0E3F1E0DE01119601900E
:1034B0000D928A95E1F729E030E03BC08CE0E8EB23
:1034C000F3E0DE011D9601900D928A95E1F785E00B
:1034D000E4ECF3E0DE01599601900D928A95E1F754
:1034E0008CE0ECE3F1E0DE01119601900D928A95FB
:1034F000E1F721E030E01DC08CE0E9ECF3E0DE0113
:103500001D9601900D928A95E1F787E0E5EDF3E0D5
:10351000DE01599601900D928A95E1F78CE0E8E47E
:10352000F1E0DE01119601900D928A95E1F723E01A
:1035300030E0AE014F5F5F4FBE01675E7F4FCE014F
:103540000D960E94C01900C06F960FB6F894DEBFAA
:103550000FBECDBFDF91CF9108955058BB27AA274A
:103560000E94C51A0C943F1C0E94311C38F00E9426
:10357000381C20F039F49F3F19F426F40C942E1CCB
:103580000EF4E095E7FB0C94281CE92F0E94501CD8
:1035900058F3BA17620773078407950720F079F488
:1035A000A6F50C94721C0EF4E0950B2EBA2FA02DEC
:1035B0000B01B90190010C01CA01A0011124FF27E0
:1035C000591B99F0593F50F4503E68F11A16F040DB
:1035D000A22F232F342F4427585FF3CF46953795DA
:1035E0002795A795F0405395C9F77EF41F16BA0B9F
:1035F000620B730B840BBAF09150A1F0FF0FBB1F4D
:10360000661F771F881FC2F70EC0BA0F621F731F95
:10361000841F48F4879577956795B795F7959E3FF2
:1036200008F0B0CF9395880F08F09927EE0F979583
:10363000879508950E94041C08F481E008950E9473
:10364000331B0C943F1C0E94381C58F00E94311C04
:1036500040F029F45F3F29F00C94281C51110C9480
:10366000731C0C942E1C0E94501C68F39923B1F318
:10367000552391F3951B550BBB27AA276217730798
:10368000840738F09F5F5F4F220F331F441FAA1F2C
:10369000A9F335D00E2E3AF0E0E832D091505040E8
:1036A000E695001CCAF72BD0FE2F29D0660F771F96
:1036B000881FBB1F261737074807AB07B0E809F07C
:1036C000BB0B802DBF01FF2793585F4F3AF09E3F01
:1036D000510578F00C94281C0C94731C5F3FE4F3A4
:1036E000983ED4F3869577956795B795F7959F5F44
:1036F000C9F7880F911D9695879597F90895E1E090
:10370000660F771F881FBB1F621773078407BA07EE
:1037100020F0621B730B840BBA0BEE1F88F7E09549
:1037200008950E94981B6894B1110C94731C08951D
:103730000E94581C88F09F5798F0B92F9927B751CD
:10374000B0F0E1F0660F771F881F991F1AF0BA9545
:10375000C9F714C0B13091F00E94721CB1E0089515
:103760000C94721C672F782F8827B85F39F0B93F07
:10377000CCF3869577956795B395D9F73EF49095F8
:103780008095709561957F4F8F4F9F4F0895E89476
:1037900009C097FB3EF490958095709561957F4F99
:1037A0008F4F9F4F9923A9F0F92F96E9BB27939547
:1037B000F695879577956795B795F111F8CFFAF457
:1037C000BB0F11F460FF1BC06F5F7F4F8F4F9F4F88
:1037D00016C0882311F096E911C0772321F09EE8E6
:1037E000872F762F05C0662371F096E8862F70E04C
:1037F00060E02AF09A95660F771F881FDAF7880F26
:103800009695879597F90895990F0008550FAA0B7B
:10381000E0E8FEEF16161706E807F907C0F01216E3
:103820001306E407F50798F0621B730B840B950BE6
:1038300039F40A2661F0232B242B252B21F408953B
:103840000A2609F4A140A6958FEF811D811D0895D8
:1038500097F99F6780E870E060E008959FEF80EC43
:10386000089500240A9416161706180609060895E6
:1038700000240A9412161306140605060895092E4C
:103880000394000C11F4882352F0BB0F40F4BF2BBB
:1038900011F460FF04C06F5F7F4F8F4F9F4F0895FB
:1038A00057FD9058440F551F59F05F3F71F04795F1
:1038B000880F97FB991F61F09F3F79F087950895D6
:1038C000121613061406551FF2CF4695F1DF08C0F5
:1038D000161617061806991FF1CF86957105610512
:1038E00008940895E894BB2766277727CB0197F9BA
:1038F00008950E94041C08F48FEF08950E94911C03
:103900000C943F1C0E94311C38F00E94381C20F09F
:10391000952311F00C94281C0C942E1C11240C944B
:10392000731C0E94501C70F3959FC1F3950F50E0DB
:10393000551F629FF001729FBB27F00DB11D639F61
:10394000AA27F00DB11DAA1F649F6627B00DA11D07
:10395000661F829F2227B00DA11D621F739FB00DAD
:10396000A11D621F839FA00D611D221F749F33271D
:10397000A00D611D231F849F600D211D822F762FB6
:103980006A2F11249F5750409AF0F1F088234AF093
:10399000EE0FFF1FBB1F661F771F881F91505040FF
:1039A000A9F79E3F510580F00C94281C0C94731CC1
:1039B0005F3FE4F3983ED4F3869577956795B79586
:1039C000F795E7959F5FC1F7FE2B880F911D9695A0
:1039D000879597F90895FC01918D228D892F90E0AC
:1039E000805C9F4F821B91098F7399270895FC017A
:1039F000918D828D981731F0828DE80FF11D858DA4
:103A000090E008958FEF9FEF0895FC01918D828DD6
:103A1000981761F0828DDF01A80FB11D5D968C9122
:103A2000928D9F5F9F73928F90E008958FEF9FEF2D
:103A30000895FC01538D448D252F30E0842F90E0B4
:103A4000821B930B541710F0CF9608950197089599
:103A50008DE79EE1892B49F080E090E0892B29F0E9
:103A60000E947D1E81110C9400000895FC01848D3C
:103A7000DF01A80FB11DA35ABF4F2C91848D90E098
:103A800001968F739927848FA689B7892C93A08973
:103A9000B1898C9180648C93938D848D981306C02A
:103AA0000288F389E02D80818F7D80830895EF92D5
:103AB000FF920F931F93CF93DF93EC0181E0888FE8
:103AC0009B8D8C8D981305C0E889F989808185FDCF
:103AD00024C0F62E0B8D10E00F5F1F4F0F731127C0
:103AE000E02E8C8DE8120CC00FB607FCFACFE889E7
:103AF000F989808185FFF5CFCE010E94361DF1CF77
:103B00008B8DFE01E80FF11DE35AFF4FF0820B8F02
:103B1000EA89FB898081806207C0EE89FF89608322
:103B2000E889F98980818064808381E090E0DF9179
:103B3000CF911F910F91FF90EF900895CF93DF9356
:103B4000EC01888D8823C9F0EA89FB89808185FD95
:103B500005C0A889B9898C9186FD0FC00FB607FCF6
:103B6000F5CF808185FFF2CFA889B9898C9185FF37
:103B7000EDCFCE010E94361DE7CFDF91CF910895A2
:103B8000CF92DF92EF92FF921F93CF93DF93EC01DE
:103B90006A017B01122FE889F98982E0808341154F
:103BA000514E61057105B1F060E079E08DE390E080
:103BB000A70196010E940F2ADA01C9010197A10904
:103BC000B109B695A795979587959C01211580E138
:103BD0003807A8F0E889F989108260E874E88EE176
:103BE00090E0A70196010E940F2ADA01C90101970E
:103BF000A109B109B695A795979587959C01EC8584
:103C0000FD853083EE85FF852083188EEC89FD8944
:103C10001083EA89FB89808180618083EA89FB893E
:103C2000808188608083EA89FB89808180688083C5
:103C3000EA89FB8980818F7D8083DF91CF911F91FD
:103C4000FF90EF90DF90CF9008951F920F920FB6E4
:103C50000F9211242F938F939F93EF93FF93E091F3
:103C60000E05F0910F058081E0911405F091150586
:103C700082FD12C09081809117058F5F8F73209114
:103C80001805821751F0E0911705F0E0E250FB4F64
:103C9000958F8093170501C08081FF91EF919F91CF
:103CA0008F912F910F900FBE0F901F9018951F921C
:103CB0000F920FB60F9211242F933F934F935F9360
:103CC0006F937F938F939F93AF93BF93EF93FF93E4
:103CD0008EEF94E00E94361DFF91EF91BF91AF915E
:103CE0009F918F917F916F915F914F913F912F9114
:103CF0000F900FBE0F901F9018958EEF94E00E94CA
:103D0000EB1C21E0892B09F420E0822F0895EEEFCF
:103D1000F4E01382128288EE93E0A0E0B0E08483A6
:103D20009583A683B78380EE93E09183808385ECAF
:103D300090E09587848784EC90E09787868780EC75
:103D400090E0918B808B81EC90E0938B828B82EC66
:103D500090E0958B848B86EC90E0978B868B118E10
:103D6000128E138E148E089508950E942A200E94A8
:103D7000B41E0E94DF0FC8E2DDE10E9466102097AA
:103D8000E1F30E94281DF9CF0C94EE2ACF92DF9226
:103D9000EF92FF920F931F93CF93DF936C017A0101
:103DA0008B01C0E0D0E0CE15DF0581F0D8016D9128
:103DB0008D01D601ED91FC910190F081E02DC601BD
:103DC0000995892B11F02196EECF7E01C701DF9175
:103DD000CF911F910F91FF90EF90DF90CF900895BA
:103DE0006115710579F0FB0101900020E9F7319729
:103DF000AF01461B570BDC01ED91FC910280F38172
:103E0000E02D099480E090E008950C94F01E6EEE91
:103E100073E00C94F01E8F929F92AF92BF92EF923C
:103E2000FF920F931F93CF93DF93CDB7DEB7A19788
:103E30000FB6F894DEBF0FBECDBF7C01FA01CB01F7
:103E400019A2223008F42AE08E010F5D1F4F822E46
:103E5000912CA12CB12CBF01A50194010E940F2A25
:103E6000F901CA01015011096A3010F4605D01C006
:103E7000695CD8016C93232B242B252B61F7B801A7
:103E8000C7010E94F01EA1960FB6F894DEBF0FBEC8
:103E9000CDBFDF91CF911F910F91FF90EF90BF9019
:103EA000AF909F908F9008952115310541F4DC016A
:103EB000ED91FC910190F081E02D642F09940C9418
:103EC0000B1F9A01462F50E060E070E00C94541FE5
:103ED0001F920F920FB60F9211242F933F938F933F
:103EE0009F93AF93BF9380919C0590919D05A09166
:103EF0009E05B0919F0530919B0523E0230F2D3740
:103F000020F40196A11DB11D05C026E8230F0296DD
:103F1000A11DB11D20939B0580939C0590939D0549
:103F2000A0939E05B0939F058091A0059091A10557
:103F3000A091A205B091A3050196A11DB11D80938A
:103F4000A0059093A105A093A205B093A305BF91EE
:103F5000AF919F918F913F912F910F900FBE0F9036
:103F60001F9018952FB7F89460919C0570919D054E
:103F700080919E0590919F052FBF08953FB7F894BB
:103F80008091A0059091A105A091A205B091A305F3
:103F900026B5A89B05C02F3F19F00196A11DB11DA4
:103FA0003FBFBA2FA92F982F8827820F911DA11DDF
:103FB000B11DBC01CD0142E0660F771F881F991F1C
:103FC0004A95D1F708958F929F92AF92BF92CF9268
:103FD000DF92EF92FF926B017C010E94BE1F4B01AA
:103FE0005C01C114D104E104F10401F10E94990BB8
:103FF0000E94BE1FDC01CB0188199909AA09BB09DF
:10400000883E9340A105B10560F321E0C21AD108B2
:10401000E108F10888EE880E83E0981EA11CB11C0F
:10402000C114D104E104F10419F7DBCFFF90EF9044
:10403000DF90CF90BF90AF909F908F900895823087
:10404000910538F0880F991F880F991F05970197E0
:10405000F1F70895789484B5826084BD84B5816059
:1040600084BD85B5826085BD85B5816085BDEEE680
:10407000F0E0808181608083E1E8F0E0108280815F
:1040800082608083808181608083E0E8F0E08081CD
:1040900081608083E1EBF0E0808184608083E0EBED
:1040A000F0E0808181608083EAE7F0E080818460D5
:1040B0008083808182608083808181608083808131
:1040C000806880831092C1000895833081F028F4C5
:1040D000813099F08230A1F008958730A9F08830BE
:1040E000B9F08430D1F4809180008F7D03C080913D
:1040F00080008F7780938000089584B58F7702C009
:1041000084B58F7D84BD08958091B0008F7703C002
:104110008091B0008F7D8093B0000895CF93DF939E
:1041200090E0FC01E657F74F2491FC01E256F74F6F
:104130008491882361F190E0880F991FFC01EA5374
:10414000F74FC591D491FC01E454F74FA591B49178
:10415000611109C09FB7F8948881209582238883D4
:10416000EC912E230BC0623061F49FB7F8948881E4
:10417000322F309583238883EC912E2B2C939FBF75
:1041800006C08FB7F894E8812E2B28838FBFDF916C
:10419000CF9108951F93CF93DF93282F30E0F9013B
:1041A000EA58F74F8491F901E657F74FD491F90196
:1041B000E256F74FC491CC23C1F0162F81110E9413
:1041C0006520EC2FF0E0EE0FFF1FE454F74FA591B0
:1041D000B4919FB7F894111104C08C91D095D82355
:1041E00002C0EC91DE2BDC939FBFDF91CF911F913A
:1041F0000895CF93DF93282F30E0F901EA58F74F65
:104200008491F901E657F74FD491F901E256F74F3F
:10421000C491CC2391F081110E946520EC2FF0E035
:10422000EE0FFF1FEE54F74FA591B491EC91ED23E3
:1042300081E090E021F480E002C080E090E0DF9136
:10424000CF910895CF92DF92EF92FF920F931F9339
:10425000CF93DF93F82ED62FE42E07E010E0C0E0D6
:1042600087E0C82ED12C61E08D2F0E94CA208F2DAF
:10427000E1100AC00E94F9209601201B310B01C0F9
:10428000880F2A95EAF707C00E94F920002E01C086
:10429000880F0A94EAF7C82B60E08D2F0E94CA208D
:1042A0000150110900F78C2FDF91CF911F910F91D1
:1042B000FF90EF90DF90CF900895FC018081918175
:1042C0000C94EE2ACF93DF93EC01888199810097BB
:1042D00011F00E94EE2A198218821D821C821B8214
:1042E0001A82DF91CF9108950F931F93CF93DF939D
:1042F000EC018B016F5F7F4F888199810E94772B42
:10430000009731F0998388831B830A8381E001C081
:1043100080E0DF91CF911F910F910895CF93DF93AC
:10432000EC0188819981892B29F08A819B818617EC
:10433000970760F4CE010E947421882341F08C819C
:104340009D81892B19F4E881F981108281E0DF9148
:10435000CF910895EF92FF920F931F93CF93DF9326
:10436000EC017B018A01BA010E948E21811104C0F7
:10437000CE010E94622107C01D830C83B701888192
:1043800099810E945C2CCE01DF91CF911F910F91FA
:10439000FF90EF900895FC01118210821382128227
:1043A000158214826115710551F0FB010190002006
:1043B000E9F73197AF01461B570B0C94AA210895DA
:1043C000CF93DF93EC016115710559F0FB0101906A
:1043D0000020E9F73197AF01461B570B0E94AA2135
:1043E00002C00E946221CE01DF91CF9108950F9308
:1043F0001F93CF93DF93CDB7DEB729970FB6F8940D
:10440000DEBF0FBECDBF8C01862FF8011182108256
:10441000138212821582148250E0BE016F5F7F4FBB
:1044200090E00E94722CBE016F5F7F4FC8010E9416
:10443000E02129960FB6F894DEBF0FBECDBFDF9105
:10444000CF911F910F910895EF92FF920F931F93B9
:10445000CF93DF936115710511F480E01CC0411505
:104460005105C1F07B01EC018C819D818A01080F0F
:10447000191FB801CE010E948E21882371F3288173
:1044800039818C819D81B701820F931F0E945C2C22
:104490001D830C8381E0DF91CF911F910F91FF90DD
:1044A000EF900895FB0144815581608171810C94E6
:1044B0002422FC0124813581232B31F421E0611574
:1044C0007105A1F0FB0108C0FC018081918161159B
:1044D000710531F421E0FC018081882339F005C0A9
:1044E0000E94532C21E0892B09F020E0822F0895AF
:1044F000BF92CF92DF92EF92FF920F931F93CF93D1
:10450000DF937C016B018A01E9012417350720F450
:10451000812F8901C42FD82F60EF73E0C7010E945B
:10452000CB21D60114968D919C91159708171907E8
:10453000C8F48C179D0708F4EC01D601ED91FC91AD
:104540001197EC0FFD1FB08010826D917C91600F70
:10455000711FC7010E94E021D601ED91FC91EC0F83
:10456000FD1FB082C701DF91CF911F910F91FF9086
:10457000EF90DF90CF90BF900895CF93DF93FC0131
:10458000C081D181209741F08881882329F090E073
:104590000E94422C8993F8CFDF91CF910895BF926A
:1045A000CF92DF92EF92FF920F931F93CF93DF93FF
:1045B0006C01D62FB42EC22F7801CC2371F0F701F5
:1045C000049120E04B2D6D2FC6010E94F926FFEFCC
:1045D000EF1AFF0AC150D85FF0CFDF91CF911F9142
:1045E0000F91FF90EF90DF90CF90BF9008958F9242
:1045F0009F92AF92BF92CF92DF92EF92FF920F9372
:104600001F93CF93DF935C01C62EC42FD22ED02FE1
:10461000220F220F220F0E942C23882381F0DC0F0F
:104620008D2C912CCD1759F087012D2D4C2F6C2DF1
:10463000C5010E94CF22E80CF91CCF5FF3CFDF91B8
:10464000CF911F910F91FF90EF90DF90CF90BF908F
:10465000AF909F908F9008950F93FC010150040F2D
:1046600084A996A9941718F0081728F402C008170F
:1046700050F0041740F42150260F83A995A99617EE
:1046800020F4281720F480E007C0281720F481E0E8
:10469000261710F0F8CF81E00F9108959F92AF9206
:1046A000BF92CF92DF92EF92FF920F931F93CF931F
:1046B000DF938C01EB01E42E59018AE04817B1F039
:1046C000E5E14E1355C0CA80DB8040E0C8010E947E
:1046D000012841E0BE01C8010E94E427F601F280F2
:1046E000C680D78088E0982E9F0C0BC043E0C8019D
:1046F0000E94DB2740ED58E0BE01C8010E941A2845
:1047000037C040E0BE01C8010E9401284EE3BE014F
:10471000C8010E940A28FFE1FF1540F04F2D4068B4
:10472000BE01C8010E940A2840E808C040EE4F0DB3
:104730004068BE01C8010E940A2848E8BE01C801BD
:104740000E940A2841E0BE01C8010E94012896018A
:1047500040E1BE01C8010E94132880E1C80ED11CAF
:10476000F3949F10CECF40E0BE01C8010E94E42721
:1047700095014E2DBE01C801DF91CF911F910F9180
:10478000FF90EF90DF90CF90BF90AF909F900C94F0
:104790008327FC01E60FF11D849190E0982F882774
:1047A0003196E4918E0F911D0895FC018491089536
:1047B0000E94D523882321F0823011F083E00895F0
:1047C00086E0089580E0089566E00C94C92368E0CF
:1047D0000C94C9230A96FC01849108950B96FC0160
:1047E00084910895BF92CF92DF92EF92FF920F9340
:1047F0001F93CF93DF938C01E62EDC011496CD91AD
:10480000DC911597CE010E94D523F82EF801848102
:1048100095810E94D823C82EF1E0FF1203C02FE03B
:10482000B22E02C0BB24BA94D80114968D919C91EB
:1048300015970E94EA23F82EF801848195810E9441
:10484000EE23D82ED80114968D919C9115970E9435
:10485000E723B0E6BE1538F4009729F0C80FD91F3A
:1048600091E6F92E10C0F801848195810E94E4231D
:10487000F0E4FE1538F4009729F0C80FD91F81E441
:10488000F82E01C06196DE1490F4D80150961C9267
:10489000509753961C92539754961C925497519646
:1048A0001C92519752961C9280E090E067C0DF14F2
:1048B00060F38C2D90E0FE0124912F3F11F421969E
:1048C00058C0FE104DC0D80114968D919C9115973B
:1048D0000E94D5239E012F5F3F4FFE01882311F0D8
:1048E0008230E1F48491D80153968C935397F90167
:1048F000249154962C935497FE013396E49150964C
:10490000EC935097FE013496E4915196EC935197B5
:10491000FE013596E4915296EC9320C08491982F35
:104920009F709250D80152969C93529782958F70A7
:1049300051968C935197F9012491822F8F70549640
:104940008C93549722952F7053962C935397FE0176
:104950003296E491E295EF705096EC93CE010EC042
:10496000FE013296E491EB219C012E0F311DC20F06
:10497000D31FFD1409F489CFF3949DCFDF91CF911C
:104980001F910F91FF90EF90DF90CF90BF9008950F
:104990006F927F928F929F92AF92BF92CF92DF924F
:1049A000EF92FF920F931F93CF93DF93EC01C62EEC
:1049B000742E622F0E94F2237C01892BC9F18C8115
:1049C0009D810E94D823B82E1B890C898989C80E25
:1049D0008A89781AD72CD01A212F4D2D6C2DCE0113
:1049E0000E942C23882311F1EB0CF11C195F169502
:1049F00016951695812E912C7D14C1F06C2C5701C3
:104A00008A2D8E19811770F4F501049120E04D2D47
:104A1000662DCE010E94F926FFEFAF1ABF0A88E08B
:104A2000680EEECFE80CF91CD394E6CF888901C05C
:104A300080E0DF91CF911F910F91FF90EF90DF9079
:104A4000CF90BF90AF909F908F907F906F90089580
:104A5000FF920F931F93CF93DF93EC01062F142F38
:104A6000F22EED89FE890995482F410F2F2D602FD9
:104A7000CE01DF91CF911F910F91FF900C94C8242C
:104A8000CF92DF92EF92FF920F931F93CF93DF931A
:104A90007C01D62E042FC22E132FDC015596ED91EA
:104AA000FC9156970995080FCC2DD12F10E0299134
:104AB000222341F0402F6D2DC7010E94C824D80E3B
:104AC000180FF5CF812FDF91CF911F910F91FF909C
:104AD000EF90DF90CF900895DC0114962D913C91DA
:104AE00015972115310509F43FC057968C915797BA
:104AF000F901811108C03596E4915896EC935897C6
:104B0000F9013C9611C0813041F43F96E4915896EA
:104B1000EC935897F901709607C03D96E49158962A
:104B2000EC935897F9013E96E4915996EC93599776
:104B300058968C915897082E000C990B59962C91E9
:104B40005997821B910927FD93955A962C915A9754
:104B5000203441F0829FC001112426E0969587956C
:104B60002A95E1F75B968C93089522EE33E2FC01DF
:104B7000368B258B0895CF93DF93FC0124813581FB
:104B80002617370749F0EC01758364830E946C2572
:104B900082EE93E29E8B8D8BDF91CF9108951F93D0
:104BA000CF93DF93EC011D821C821F821E82198627
:104BB00081E0888782E28A871F861E86FE01B3967F
:104BC000CE01C1962FEF2193E817F907E1F711E025
:104BD00018A3CE010E94B5251F8B188E198E80E474
:104BE0008A8F1B8E8AEC97E29AAB89ABDF91CF91CB
:104BF0001F910895DB01ED91FC9109940F931F9390
:104C0000CF93DF93EC018B01E9A9FAA982E0099522
:104C100020E030E04AE0B801CE010E94FA25182FCA
:104C2000E9A9FAA983E00995E9A9FAA980E009951B
:104C3000812FDF91CF911F910F9108950F931F93B3
:104C4000CF93DF93EC018B01E9A9FAA982E00995E2
:104C5000E9A9FAA981E0099520E030E044E1B80132
:104C6000CE010E94FA259E012D5C3F4F47E1B8011D
:104C7000CE010E94FA25E9A9FAA980E0DF91CF913F
:104C80001F910F910994EF92FF921F93CF93DF939F
:104C9000EC017B01E9A9FAA982E00995E9A9FAA941
:104CA00081E0099520E030E045E1B701CE010E94A6
:104CB000FA25182F882341F09E012D5C3F4F47E1D4
:104CC000B701CE010E94FA25E9A9FAA980E0099569
:104CD000812FDF91CF911F91FF90EF900895CF9397
:104CE000DF931F92CDB7DEB79E012F5F3F4F46E4A3
:104CF0000E94FA2589810F90DF91CF910895CF937B
:104D0000DF931F92CDB7DEB79E012F5F3F4F47E481
:104D10000E94FA2589810F90DF91CF91089520E0BC
:104D200030E048E40C94FA25CF93DF93EC016A81DC
:104D30007B810E946F2688836A817B81CE010E94DD
:104D40007F2689836A817B81CE010E948F268B8793
:104D50009E012D5C3F4F6A817B8147E1CE01DF914F
:104D6000CF910C94FA25CF93DF93EC016A817B817C
:104D70000E94FE25882321F0CE010E94942681E026
:104D8000DF91CF910895AF92BF92CF92EF92FF92B1
:104D90000F931F93CF93DF93EC015B01F42E122F3F
:104DA0000E94CF25BB82AA82FFA218A70DA3ECA266
:104DB000CBA2CE01DF91CF911F910F91FF90EF9089
:104DC000CF90BF90AF900C94B326FC0162817381A9
:104DD0000C941E26CF93DF93EC01EE85FF85309770
:104DE00009F009956A817B81CE01DF91CF910C9406
:104DF00043260F93FC0182819381648F458F278F17
:104E0000068F9F01245E3F4F4BE3BC01CF010F9102
:104E10000C94FA250F931F93CF93DF93EC010E812F
:104E20001F819D81969596959695862F8770A0E80F
:104E3000B0E002C0B595A7958A95E2F78A81481B34
:104E4000499F402D1124669566956695E62FF0E002
:104E5000E40FF11DE00FF11F8081222311F0A82B38
:104E600002C0A095A823A083DF91CF911F910F913D
:104E70000895FB014181DC0112962C911297421793
:104E800068F013962C911397241740F060811596C3
:104E90002C91621718F424810C940A270895CF925C
:104EA000DF92FF920F931F93CF93DF936C01EB017F
:104EB000FA808B81813051F030F0823049F08330BC
:104EC00051F41FEF09C010E001E007C011E004C079
:104ED00010E00FEF02C010E000E0F7FE04C0BE01DA
:104EE000C6010E9439278881800F88838981810FBC
:104EF0008983FF0C91F7DF91CF911F910F91FF9064
:104F0000DF90CF9008950F931F93CF93DF93890184
:104F1000FB01C281D3814233F9F068F4453109F1D4
:104F2000473141F1443181F5CE010E94A329CE01E0
:104F30000E94862929C0463411F1473411F14B33C0
:104F400019F5B901CE010E94DA298823E9F0B801E8
:104F5000CE010E944F2718C0B901CE010E94392707
:104F600013C0CE010E948D29882379F0CE010E94C2
:104F7000A3290AC0B901CE010E94CA2905C08D81AA
:104F800001C08981F801808381E0DF91CF911F9179
:104F90000F9108950895CF92EF920F93FC0113AEF5
:104FA00014AE15AE04960E94C3260F91EF90CF90D9
:104FB00008950E943D2CDB011496ED91FC9115970C
:104FC00020E030E061E00994DB011496ED91FC9162
:104FD000159720E030E063E00994DB011496ED9131
:104FE000FC91159720E030E040E064E00994DB019B
:104FF0001496ED91FC91159720E030E041E064E0DB
:105000000994DB011496ED91FC91159720E030E0B6
:1050100062E00994DB011496ED91FC91159720E074
:1050200030E065E00994DB011496ED91FC91159751
:1050300066E00994CF92DF92EF92FF920F931F9355
:10504000CF93DF938C016B017A0180E0F701C4916B
:1050500081110AC0CF3FE9F14C2FB601C8010E946F
:105060000A2881112FC03AC0CF3F11F44FEFF5CF7E
:10507000CE3FB1F1C03F30F5C03E38F04C2F4F70FD
:10508000B601C8010E9401281DC0C03D38F04C2F58
:105090004F70B601C8010E94E42714C0C03CA0F0C4
:1050A000B601C8010E94ED27C295C07FCE5FD0E057
:1050B000CE010E947729B601C8010E94F727CE01D0
:1050C0000E94772980E006C0C7FDFCCF8C2F90E0BE
:1050D000F7CF81E0FFEFEF1AFF0AB8CF80E001C001
:1050E00081E0DF91CF911F910F91FF90EF90DF90C2
:1050F000CF90089590E0FC01E256F74FE491F0E084
:10510000EE0FFF1FE454F74F25913491309327069B
:105110002093260670E0FB01E256F74FE491F0E0A1
:10512000EE0FFF1FE454F74F25913491309325067D
:1051300020932406FC01E657F74F849180932B06B9
:10514000FB01E657F74F64916093290660956093E1
:105150002806809580932A06089530912B06409169
:105160002A065091290660912806A0912606B09142
:105170002706E0912406F09125069FB790932C0610
:10518000F8949C91392B9C91492398E087FF02C0A9
:105190003C9301C04C93880F2081262320832081DB
:1051A000252B2083915091F780912C068FBF089575
:1051B000CF93C62F811102C088EF03C0813019F44C
:1051C0008AEF0E94AD288C2F807F0E94AD288C2F03
:1051D0008295807F0E94AD280E9481290E948129AA
:1051E0000E948129CF910C948129EF92FF921F9305
:1051F000CF93DF93EC01142F7901862F90E0FC010F
:105200003197E730F10508F06BC0EC5CFF4F0C9470
:10521000502ACE010E94F42940E062E0CE010E94B3
:10522000EA2941E064E0CE010E94EA2940E065E01D
:10523000CE010E94EA296FA188A50E947A281EA2A9
:105240004FC08BA18F3F09F44BC060E004C04111F7
:1052500006C040E062E0CE010E94EA2941C041E080
:1052600062E0CE010E94EA296FA188A50E947A28F7
:1052700037C0642F8EA10E94D82832C08EA1811120
:1052800002C088EF03C0813019F48AEF0E94AD2874
:10529000112381F0F7018081807F0E94AD28F70102
:1052A00081917F018295807F0E94AD2811500E94DC
:1052B0008129EECF0E9481290E9481290E948129A3
:1052C0000E9481290DC0112359F0F70164918EA12C
:1052D0000E94D828FFEFEF1AFF0A1150F4CF4EA317
:1052E00081E0DF91CF911F91FF90EF9008952EE91B
:1052F0003FE0009729F0F9013197F1F70197F9CFD5
:10530000089588E290E00197F1F70895FC01128278
:1053100080818150838314820895FC0130819281C1
:10532000930F92832181921760F494819F5F9483FD
:105330008381830F821710F08FEF820F838381E0C8
:10534000089580E00895DC011696ED91FC91179781
:1053500015968C919F01280F311DC9011192E817F4
:10536000F907E1F7089531E0FC012381261708F4DD
:1053700030E021E0FC018281481708F420E091E050
:10538000461708F090E0892F832B2823832F892349
:10539000822B0895DC01FB01108212968C911297EA
:1053A000818315968C9115978150828313968C91E9
:1053B00083830895FB0141812381213029F023302B
:1053C00031F468EF640F04C0642F485F01C0642F9C
:1053D0000C94B329860F911DFC0183A18F3F19F016
:1053E000642F0C94CA2008950F931F93CF93DF93DB
:1053F000EC018C01035F1F4F8BA18F3F39F061E0FF
:105400000E948E2061E08BA10E94CA202196C017C5
:10541000D10791F7DF91CF911F910F910895A1E2EC
:105420001A2EAA1BBB1BFD010DC0AA1FBB1FEE1F1E
:10543000FF1FA217B307E407F50720F0A21BB30B69
:10544000E40BF50B661F771F881F991F1A9469F7E5
:1054500060957095809590959B01AC01BD01CF0141
:105460000895052E97FB1EF400940E94482A57FDCC
:1054700007D00E940F2A07FC03D04EF40C94482A50
:1054800050954095309521953F4F4F4F5F4F089570
:1054900090958095709561957F4F8F4F9F4F0895A0
:1054A000EE0FFF1F0590F491E02D09940F931F93C9
:1054B000CF93DF938230910510F482E090E0E09189
:1054C0002F06F091300620E030E0A0E0B0E0309709
:1054D00019F1408151810281138148175907C8F0A1
:1054E0008417950769F4109731F012960C93129770
:1054F00013961C9327C000932F061093300622C0EA
:105500002115310519F04217530718F49A01BD010E
:10551000EF01DF01F801DBCF21153105F9F0281B80
:10552000390B2430310580F48A819B816115710526
:1055300021F0FB019383828304C090933006809313
:105540002F06FE01329644C0FE01E20FF31F819345
:10555000919322503109398328833AC020912D0636
:1055600030912E06232B41F420910201309103014A
:1055700030932E0620932D062091000130910101D9
:105580002115310541F42DB73EB7409104015091EA
:105590000501241B350BE0912D06F0912E06E21734
:1055A000F307A0F42E1B3F0B2817390778F0AC0146
:1055B0004E5F5F4F2417350748F04E0F5F1F509323
:1055C0002E0640932D068193919302C0E0E0F0E017
:1055D000CF01DF91CF911F910F910895CF93DF936A
:1055E000009709F481C0FC01329713821282A091C6
:1055F0002F06B0913006109781F420813181820FFF
:10560000931F20912D0630912E062817390751F54A
:10561000F0932E06E0932D0667C0ED0120E030E008
:10562000CE17DF0740F44A815B819E014115510589
:10563000F1F0EA01F5CFD383C28340815181840F19
:10564000951FC817D90759F488819981840F951F30
:105650000296918380838A819B8193838283211523
:10566000310529F4F0933006E0932F063DC0E9019F
:10567000FB83EA8349915991C40FD51FEC17FD07AD
:1056800061F480819181840F951F0296E9019983CD
:105690008883828193819B838A83E0E0F0E0129685
:1056A0008D919C911397009719F0FD01DC01F7CFC4
:1056B0008D919C9111979D012E5F3F4F820F931FFB
:1056C00020912D0630912E062817390769F430975E
:1056D00029F41092300610922F0602C01382128213
:1056E000B0932E06A0932D06DF91CF910895A0E0F0
:1056F000B0E0EDE7FBE20C945E2FEC01009721F4A3
:10570000CB010E94562AB4C0FC01E60FF71F9C0192
:1057100022503109E217F30708F4A8C0D9010D910E
:105720001C91119706171707B0F00530110508F402
:105730009BC0C80104978617970708F495C00250CC
:105740001109061B170B019311936D937C93CF01E5
:105750000E94EE2A89C05B01A01AB10A4C01800E9A
:10576000911EA0912F06B0913006612C712CE12C76
:10577000F12C109709F446C08D919C911197A815B2
:10578000B905B1F56C0142E0C40ED11CCA14DB04AA
:1057900078F14C018A189B08640142E0C40ED11CC8
:1057A0001296BC9012971396AC91B5E0CB16D1042B
:1057B00040F0B282A38391828082D9016D937C9361
:1057C00009C00E5F1F4F800F911FF90191838083E5
:1057D000EB2DFA2FE114F10431F0D7011396FC936D
:1057E000EE93129741C0F0933006E0932F063CC031
:1057F0006816790608F43C017D0112960D90BC9163
:10580000A02DB7CF80912D0690912E06881699066F
:10581000E1F466167706C8F48091000190910101C9
:10582000009741F48DB79EB7409104015091050156
:10583000841B950BE817F907C8F4F0932E06E09344
:105840002D06F901718360830FC0CB010E94562A97
:105850007C01009759F0A801BE010E944A2CCE019C
:105860000E94EE2AC70104C0CE0102C080E090E091
:10587000CDB7DEB7EEE00C947A2F81E090E0F8949B
:105880000C94912F9111089581568A5108F48052F9
:1058900085580895FB01DC0102C001900D92415032
:1058A0005040D8F70895FB01DC018D9101908019DB
:1058B0000110D9F3990B0895FB01DC0101900D92C1
:1058C0000020E1F70895FB01DC014150504048F011
:1058D00001900D920020C9F701C01D924150504027
:1058E000E0F708954532510520F4423010F00C9451
:1058F0007D2CFB011082CB010895BB27FB015527AE
:10590000AA27880F991FAA1FA41710F0A41B83951C
:105910005051B9F7A05DAA3308F0A95DA193009793
:1059200079F7B111B1931192CB010C94B02EAEE086
:10593000B0E0EDE9FCE20C94682F0D891E8986E049
:105940008C831A8309838FEF9FE79E838D83AE013B
:10595000475E5F4F6F89788DCE0101960E94B92C0A
:10596000EF81F885E00FF11F10822E96E4E00C9491
:10597000842FABE0B0E0EFEBFCE20C945A2F6C010B
:105980007B018A01FC0117821682838181FFCCC1D1
:10599000CE0101963C01F6019381F70193FD8591BB
:1059A00093FF81917F01882309F4BAC1853239F4CC
:1059B00093FD859193FF81917F01853229F4B60192
:1059C00090E00E94C02EE7CF912C212C312CFFE1DA
:1059D000F315D8F08B3279F038F4803279F08332D5
:1059E000A1F4232D20611DC08D3261F0803369F454
:1059F000232D216016C0832D8260382EE32DE460B4
:105A00003E2E2AC0F32DF8601DC037FC2DC020EDBE
:105A1000280F2A3040F08E32B9F436FC81C1232D94
:105A20002064322E19C036FE06C08AE0989E200DF2
:105A30001124922E11C0EAE02E9E200D1124222E58
:105A4000F32DF0623F2E08C08C3621F4832D806840
:105A5000382E02C0883641F4F70193FD859193FFFB
:105A600081917F018111B3CF982F9F7D9554933001
:105A700028F40C5F1F4F9FE399830DC0833631F0EC
:105A8000833771F0833509F059C021C0F801808156
:105A900089830E5F1F4F88248394912C530113C078
:105AA0002801F2E04F0E511CF801A080B18036FEB3
:105AB00003C0692D70E002C06FEF7FEFC5010E9447
:105AC000A52E4C018201F32DFF773F2E16C0280131
:105AD00022E0420E511CF801A080B18036FE03C0C6
